:100000000C9456000C9475000C9475000C947500BB
:100010000C9475000C9475000C9475000C9475008C
:100020000C9475000C9475000C9475000C9475007C
:100030000C9475000C9475000C9475000C9475006C
:100040000C9475000C9475000C9475000C9475005C
:100050000C9475000C9475000C9475000C9475004C
:100060000C9475000C9475000C9475000C9475003C
:100070000C9475000C9475000C9475000C9475002C
:100080000C9475000C9475000C9475001A014102D3
:1000900048024F0256025D0264026B02390282027C
:1000A0008902900297029E02A502AC0211241FBE93
:1000B000CFEFD0E4DEBFCDBF11E0A0E0B1E0E6E8D5
:1000C000F8E000E00BBF02C007900D92AE30B10720
:1000D000D9F711E0AEE0B1E001C01D92A731B10740
:1000E000E1F70E94B3020C9441040C940000CF93FA
:1000F000C82F8A3019F48DE00E9477009091C000DB
:1001000095FFFCCFC093C60080E090E0CF910895AA
:10011000CF92DF92EF92FF926B017C01209111014F
:100120003091120140911301509114010E94C802B4
:10013000882309F458C020E030E0A901C701B601C6
:100140000E94C802811106C0E1E9F0E08081887058
:10015000808305C0E1E9F0E080818360808328E549
:1001600039E344E75FE3C701B6010E94C802882370
:100170003CF48FEF9FEF909399008093980027C0F5
:1001800020E034E244EF56E4C701B6010E94DA03EE
:1001900018162CF4109299001092980018C020E0C4
:1001A00030E040E053E4C701B6010E94DE039B014A
:1001B000AC0160E074E284EF9AE40E94CC020E94F9
:1001C0003403615071097093990060939800109204
:1001D000950010929400C0921101D0921201E09209
:1001E0001301F0921401FF90EF90DF90CF900895EB
:1001F00080E4809390008BE08093910060E070E059
:10020000CB010E94880008951092900010929100F6
:10021000089580B18095877080930E01E09115015B
:10022000F0911601E930F10508F05CC1EA5BFF4F7F
:100230000C94BF0291E0843009F090E020910F010E
:1002400081E0211180E0892361F00E94F80081E0C3
:1002500080930F0188E090E0909316018093150140
:1002600010C081E0213009F080E0982351F00E9415
:10027000040110920F0188E090E0909316018093A2
:10028000150190910E01913051F480911001883048
:1002900088F4809110018F5F809310010BC0923021
:1002A00049F480911001823028F080911001815032
:1002B0008093100121E0913009F020E0309110018D
:1002C00081E0313009F080E0822339F081E090E074
:1002D000909316018093150109C13091100181E0BE
:1002E000323009F080E0822339F082E090E0909390
:1002F000160180931501FAC03091100181E033306E
:1003000009F080E0822339F083E090E090931601B9
:1003100080931501EBC03091100181E0343009F079
:1003200080E0822339F084E090E09093160180937E
:100330001501DCC03091100181E0353009F080E01A
:10034000822339F085E090E09093160180931501A7
:10035000CDC03091100181E0363009F080E0822379
:1003600039F086E090E09093160180931501BEC0AD
:100370003091100181E0373009F080E0822339F0BC
:1003800087E090E09093160180931501AFC081E063
:10039000923009F080E02091100191E0213009F0C5
:1003A00090E0982339F081E090E0909316018093DB
:1003B00015019CC02091100191E0223009F090E0DD
:1003C000982339F082E090E0909316018093150114
:1003D0008DC02091100191E0233009F090E0982326
:1003E00039F083E090E090931601809315017EC070
:1003F0002091100191E0243009F090E0982339F029
:1004000084E090E090931601809315016FC02091D5
:10041000100191E0253009F090E0982339F085E053
:1004200090E0909316018093150160C02091100117
:1004300091E0263009F090E0982339F086E090E0D2
:10044000909316018093150151C02091100191E005
:10045000273009F090E0892339F087E090E090930D
:1004600016018093150142C01092160110921501D9
:100470003DC080B18F3FD1F5109216011092150149
:1004800035C088E090E090931601809315012EC04E
:1004900088E090E0909316018093150127C088E0D2
:1004A00090E0909316018093150120C088E090E0C1
:1004B000909316018093150119C088E090E0909305
:1004C00016018093150112C088E090E09093160108
:1004D000809315010BC088E090E090931601809303
:1004E000150104C01092160110921501E09115013A
:1004F000F09116013197E730F105A0F5E15BFF4F70
:100500000C94BF0264EA70ED82E893E40E948800D4
:10051000089564EA70ED84EA93E40E9488000895E7
:1005200061E77DE98EEA93E40E948800089560E027
:1005300070E084EC93E40E948800089560E070E02D
:100540008CED93E40E948800089564EA70EF86EFD2
:1005500093E40E948800089560E070ED82E094E4E6
:100560000E948800089511B88FEF82B984B915B838
:1005700010921601109215010E940901FDCFEE0F95
:10058000FF1F0024001C0BBE0790F691E02D09947C
:100590009CD008F481E008950CD0D2C0CAD040F0BD
:1005A000C1D030F021F45F3F19F0B3C05111FCC04D
:1005B000B6C0D7D098F39923C9F35523B1F3951B4F
:1005C000550BBB27AA2762177307840738F09F5F74
:1005D0005F4F220F331F441FAA1FA9F333D00E2EE3
:1005E0003AF0E0E830D091505040E695001CCAF750
:1005F00029D0FE2F27D0660F771F881FBB1F261715
:1006000037074807AB07B0E809F0BB0B802DBF01E7
:10061000FF2793585F4F2AF09E3F510568F079C03D
:10062000C3C05F3FECF3983EDCF386957795679502
:10063000B795F7959F5FC9F7880F911D9695879598
:1006400097F90895E1E0660F771F881FBB1F6217B7
:1006500073078407BA0720F0621B730B840BBA0B75
:10066000EE1F88F7E095089504D06894B1119CC0FE
:1006700008957FD088F09F5790F0B92F9927B751F0
:10068000A0F0D1F0660F771F881F991F1AF0BA9556
:10069000C9F712C0B13081F086D0B1E0089583C0AF
:1006A000672F782F8827B85F39F0B93FCCF386954C
:1006B00077956795B395D9F73EF4909580957095A9
:1006C00061957F4F8F4F9F4F0895990F0008550FE9
:1006D000AA0BE0E8FEEF16161706E807F907C0F0C8
:1006E00012161306E407F50798F0621B730B840BD0
:1006F000950B39F40A2661F0232B242B252B21F4AA
:1007000008950A2609F4A140A6958FEF811D811D49
:10071000089597F99F6780E870E060E008959FEF83
:1007200080EC089500240A94161617061806090688
:10073000089500240A941216130614060506089557
:10074000092E0394000C11F4882352F0BB0F40F4DF
:10075000BF2B11F460FF04C06F5F7F4F8F4F9F4F1F
:10076000089557FD9058440F551F59F05F3F71F0A1
:100770004795880F97FB991F61F09F3F79F0879508
:100780000895121613061406551FF2CF4695F1DF91
:1007900008C0161617061806991FF1CF8695710521
:1007A000610508940895E894BB2766277727CB0155
:1007B00097F908958ADF08F48FEF08950BD0C0CF22
:1007C000B1DF28F0B6DF18F0952309F0A2CFA7CF4C
:1007D0001124EACFC6DFA0F3959FD1F3950F50E027
:1007E000551F629FF001729FBB27F00DB11D639FE3
:1007F000AA27F00DB11DAA1F649F6627B00DA11D89
:10080000661F829F2227B00DA11D621F739FB00D2E
:10081000A11D621F839FA00D611D221F749F33279E
:10082000A00D611D231F849F600D211D822F762F37
:100830006A2F11249F5750408AF0E1F088234AF034
:10084000EE0FFF1FBB1F661F771F881F9150504080
:10085000A9F79E3F510570F05CCFA6CF5F3FECF348
:10086000983EDCF3869577956795B795F795E7956C
:100870009F5FC1F7FE2B880F911D9695879597F97D
:060880000895F894FFCF7B
:0E0886000000000200000000770000000000EB
:00000001FF
